:020000040000FA
:0400000007EF00F016
:100008005A8289ED0DF0ACEF11F0296E000186518E
:10001800D8A411EF00F013EF00F052EF00F0070E34
:1000280054EC14F0556E55508009556E55C007F0C4
:10003800070EADEC14F0000E54EC14F0556E553864
:100048000F0B070B516E51500A0DF3CF51F055505D
:100058000F0B5124516E010E54EC14F0556E5538A7
:100068000F0B070B526E52500A0DF3CF52F055503A
:100078000F0B5224526E020E54EC14F0556E553884
:100088000F0B030B536E53500A0DF3CF53F055501B
:100098000F0B5324536E010E0001866F0C0E2918A6
:1000A800D8A459EF00F05BEF00F074EF00F0020EF7
:1000B8005418D8B462EF00F064EF00F06CEF00F071
:1000C800010E5424216E226A000E222270EF00F0E5
:1000D800000E226E000E216E21C054F07CEF01F05C
:1000E8000B0E2918D8A47BEF00F07DEF00F0E1EFAC
:1000F80000F05450D8A483EF00F085EF00F09EEF95
:1001080000F03B0E5118D8B48CEF00F08EEF00F0E1
:1001180096EF00F0010E5124236E246A000E24226B
:100128009AEF00F0000E246E000E236E23C051F0EB
:100138007CEF01F05404D8A4A4EF00F0A6EF00F07F
:10014800BFEF00F03B0E5218D8B4ADEF00F0AFEFA0
:1001580000F0B7EF00F0010E5224256E266A000E5B
:100168002622BBEF00F0000E266E000E256E25C07D
:1001780052F07CEF01F0020E5418D8A4C6EF00F03C
:10018800C8EF00F07CEF01F0170E5318D8B4CFEF8A
:1001980000F0D1EF00F0D9EF00F0010E5324276EE4
:1001A800286A000E2822DDEF00F0000E286E000EEF
:1001B800276E27C053F07CEF01F0160E2918D8A43B
:1001C800E8EF00F0EAEF00F0FFEF00F0070E54EC64
:1001D80014F0556E55507F0B556E55C007F0070E3D
:1001E800ADEC14F0020E00018B6F010E8C6F000E47
:1001F800866F04EF02F0150E2918D8A406EF01F057
:1002080008EF01F07CEF01F051C006F0076A000E1C
:10021800096E0A0E086E8CEC0FF006C00EF007C0CF
:100228000FF00F0E0E1651C006F0076A000E096E89
:100238000A0E086ECAEC0EF00638F00B700B0E10A2
:10024800556E55C007F0000EADEC14F052C006F024
:10025800076A000E096E0A0E086E8CEC0FF006C0D5
:100268000EF007C00FF00F0E0E1652C006F0076A08
:10027800000E096E0A0E086ECAEC0EF00638F00B76
:10028800700B0E10556E55C007F0010EADEC14F052
:1002980053C006F0076A000E096E0A0E086E8CEC51
:1002A8000FF006C00EF007C00FF00F0E0E1653C069
:1002B80006F0076A000E096E0A0E086ECAEC0EF008
:1002C8000638F00B300B0E10556E55C007F0020EB5
:1002D800ADEC14F0070E54EC14F0556E55507F0B2E
:1002E800556E55C007F0070EADEC14F0F6EF00F0B0
:1002F80053C006F0076A000E096E0A0E086ECAECB3
:100308000EF00650300F106E53C006F0076A000E4C
:10031800096E0A0E086E8CEC0FF00650300F116E45
:100328003A0E126E52C006F0076A000E096E0A0EE7
:10033800086ECAEC0EF00650300F136E52C006F06D
:10034800076A000E096E0A0E086E8CEC0FF0065054
:10035800300F146E3A0E156E51C006F0076A000E83
:10036800096E0A0E086ECAEC0EF00650300F166EB3
:1003780051C006F0076A000E096E0A0E086E8CEC72
:100388000FF00650300F176E000E186E5950D8B483
:10039800D0EF01F0D2EF01F0F5EF01F0E6EF01F058
:1003A8005F0E166E5F0E176EF5EF01F05F0E136E9F
:1003B8005F0E146EF5EF01F05F0E106E5F0E116E9A
:1003C800F5EF01F05450000AD8B4D4EF01F0010A57
:1003D800D8B4DAEF01F0030AD8B4E0EF01F0F5EF92
:1003E80001F0BE0E086E2F0E096E800E0A6E1CEC10
:1003F80012F0100E086E096AC00E0A6E1CEC12F09C
:1004080012000C6E160E0C18D8A40DEF02F00FEFA8
:1004180002F018EF02F0020E00018B6F010E8C6FD4
:10042800000E896F6FEF03F000018951D8A41FEF08
:1004380002F021EF02F077EF02F03D0E086E2F0E6A
:10044800096E800E0A6E1CEC12F05950D8B42FEFCA
:1004580002F031EF02F03CEF02F0FD0E086E2F0EB5
:10046800096E5750C00F0A6E1CEC12F045EF02F0EF
:10047800160E086E2E0E096E5750C00F0A6E1CEC31
:1004880012F00C50B3EC12F0040E5718D8A44FEF2A
:1004980002F051EF02F06FEF03F0DCEC12F000090C
:1004A800D8B459EF02F05BEF02F072EF02F03C0EA5
:1004B800086E2E0E096E800E0A6E1CEC12F0060EE7
:1004C800086E2E0E096EC00E0A6E1CEC12F0010E9C
:1004D8000001896F000E576E6FEF03F0000E0001E8
:1004E8008B6F6FEF03F08905D8A47DEF02F07FEFE3
:1004F80002F0BCEF02F05950D8B485EF02F087EF54
:1005080002F092EF02F0FD0E086E2F0E096E5750A2
:10051800C00F0A6E1CEC12F09BEF02F0160E086E6C
:100528002E0E096E5750C00F0A6E1CEC12F00C50BC
:1005380025EC14F0040E5718D8A4A5EF02F0A7EF85
:1005480002F06FEF03F04E0E086E2E0E096E800E4D
:100558000A6E1CEC12F0060E086E2E0E096EC00E06
:100568000A6E1CEC12F0020E0001896F6EEF02F0A9
:10057800020E8919D8A4C3EF02F0C5EF02F06FEF9D
:1005880003F05950D8B4CBEF02F0CDEF02F0D8EF1A
:1005980002F0FD0E086E2F0E096E5750C00F0A6E3E
:1005A8001CEC12F0E1EF02F0160E086E2E0E096E2A
:1005B8005750C00F0A6E1CEC12F00C50B3EC12F03E
:1005C800040E5718D8A4EBEF02F0EDEF02F06FEF2E
:1005D80003F003EC13F00009D8B4F5EF02F0F7EFDD
:1005E80002F043EF03F060C007F0640EB1EC13F0C3
:1005F80061C007F0650EB1EC13F062C007F0660E3B
:10060800B1EC13F063C007F0670EB1EC13F060C0F3
:1006180068F061C069F062C06AF063C06BF0180EE0
:10062800086E2E0E096E800E0A6E1CEC12F02A0E51
:10063800086E2E0E096EC00E0A6E1CEC12F0D59EC6
:10064800200E0001706F4E0E716F000E726F000E5B
:10065800736F000ED76E060ED66ED58E705171115F
:1006680072117311D8A43BEF03F03DEF03F032EFA2
:1006780003F0020E8B6F010E8C6F6FEF03F01B0EF1
:10068800086E2F0E096E800E0A6E1CEC12F02C0EEE
:10069800086E2F0E096EC00E0A6E1CEC12F0D59E65
:1006A800200E0001706F4E0E716F000E726F000EFB
:1006B800736F000ED76E060ED66ED58E70517111FF
:1006C80072117311D8A46BEF03F06DEF03F062EFB2
:1006D80003F00FEF02F012007CEC14F0000E0001A2
:1006E8008B6F000E8A6F8D69040E2AEC13F006C01A
:1006F800EEF007C0EFF0EEC006F0EFC007F0000E16
:10070800096E0A0E086E72EC11F006500001906F27
:10071800650E906192EF03F094EF03F099EF03F008
:1007280090C0EAF0EB6B9DEF03F0000EEB6F630EE9
:10073800EA6FEAC090F02FEC11F0A60E0001CD6F21
:1007480094C0CEF090C0CFF0F8EC0DF0640E3FEC02
:1007580014F00001686F650E3FEC14F00001696F3A
:10076800660E3FEC14F000016A6F670E3FEC14F060
:1007780000016B6F000E63EC0EF00001F06F040EC9
:100788002AEC13F006C0EEF007C0EFF0EEC006F05A
:10079800EFC007F0000E096E0A0E086E72EC11F039
:1007A80006500001906F650E9061DDEF03F0DFEFFA
:1007B80003F0E4EF03F090C0ECF0ED6BE8EF03F02A
:1007C800000EED6F630EEC6FECC090F08B51D8A467
:1007D800F0EF03F0F2EF03F022EF04F0F05127EC12
:1007E8000BF00B0E0001F019D8A4FDEF03F0FFEF9A
:1007F80003F0BEEF03F0010E8B6F070E086E2E0E8E
:10080800096E800E0A6E1CEC12F0070E086E2E0E92
:10081800096EC00E0A6E1CEC12F0D59E600E000127
:10082800746FEA0E756F000E766F000E776F000E0C
:10083800D76E060ED66ED58EBEEF03F08B05D8A404
:1008480028EF04F02AEF04F05FEF04F0640E3FECA9
:1008580014F00001686F650E3FEC14F00001696F39
:10086800660E3FEC14F000016A6F670E3FEC14F05F
:1008780000016B6FF0512DEC07F0000174517511F8
:1008880076117711D8A44BEF04F04DEF04F0BEEFCA
:1008980003F083518411D8A454EF04F056EF04F008
:1008A800BEEF03F0000E8B6F210E2DEC07F0BEEFAC
:1008B80003F0BEEF03F0020E8B19D8A466EF04F024
:1008C80068EF04F06DEF04F0F05157EC08F0BEEF5C
:1008D80003F0030E8B19D8A474EF04F076EF04F03C
:1008E800BEEF03F08A51D8A47CEF04F07EEF04F049
:1008F80083EF04F0F0517EEC09F0BEEF03F0020E36
:100908008A19D8A48AEF04F08CEF04F090EF04F071
:10091800FEEC05F0BEEF03F08A05D8A496EF04F0CC
:1009280098EF04F09DEF04F0F051E5EC11F0BEEF04
:1009380003F0030E8A19D8A4A4EF04F0A6EF04F07C
:10094800ABEF04F0F05109EC00F0BEEF03F0040E39
:100958008A19D8A4B2EF04F0B4EF04F05DEF04F004
:10096800F05105EC02F0BEEF03F007EF00F028505D
:10097800D96EDA6ADECFF6FFDDCFF7FF0800F55053
:10098800250AD8A4CAEF04F0CCEF04F0ECEF05F088
:100998002850D96EDA6ADE2A000EDD22000E000128
:1009A8007C6F000E7B6F7BC085F07D697E6928C0F7
:1009B8000CF029C00DF0E4EC0FF00CC07BF00DC07A
:1009C8007CF000017CBFEDEF04F0EBEF04F0F2EFF8
:1009D80004F085817B6D7C1FD8B07C2B2850D96EA4
:1009E800DA6ADECFF6FFDDCFF7FF0800F550630ABD
:1009F800D8A401EF05F003EF05F01BEF05F0285030
:100A0800D96EDA6ADE2A000EDD222950D96EDA6A3A
:100A1800DF50DF2ADF2AD96EDA6ADF50306E27C04E
:100A28000EF030C00FF02CEC0FF0FDEF05F0285061
:100A3800D96EDA6ADECF32F0DDCF33F032C0F6FF9E
:100A480033C0F7FF0800F550640AD8B42EEF05F05C
:100A580030EF05F03EEF05F032C0F6FF33C0F7FF88
:100A68000800F550690AD8A43CEF05F03EEF05F000
:100A780061EF05F02950D96EDA6A020EDF26DF5CD5
:100A8800D96EDA6ADECF2CF0DECF2DF0010E3224DB
:100A98002A6E000E33202B6E2850D96EDA6A2AC0CF
:100AA800DEFF2BC0DDFF27C01CF02CC01DF02DC0C1
:100AB8001EF0CFEC0BF0FDEF05F0000E316E285064
:100AC800D96EDA6ADECFF6FFDDCFF7FF0800F55002
:100AD800730AD8A472EF05F074EF05F07EEF05F005
:100AE8002850D96EDA6ADE2A000EDD22010E316E38
:100AF800CAEF05F02850D96EDA6ADECFF6FFDDCFEF
:100B0800F7FF0800F5506C0AD8A48DEF05F08FEFB9
:100B180005F0CAEF05F02850D96EDA6ADECF2AF060
:100B2800DDCF2BF0010E2A26000E2B222AC0F6FF5D
:100B38002BC0F7FF0800F5506C0AD8A4A6EF05F003
:100B4800A8EF05F0CAEF05F02850D96EDA6ADECFB3
:100B58002AF0DDCF2BF0020E2A26000E2B222AC007
:100B6800F6FF2BC0F7FF0800F550730AD8A4BFEFB3
:100B780005F0C1EF05F0CAEF05F02850D96EDA6A22
:100B8800030EDE26000EDD227AEF05F03150D8B4D0
:100B9800D0EF05F0D2EF05F0E4EF05F027C00EF036
:100BA8002950D96EDA6A020EDF26DF5CD96EDA6A5E
:100BB800DECF0FF0DECF10F078EC0AF0FDEF05F095
:100BC8002850D96EDA6ADE2A000EDD22FDEF05F024
:100BD8002850D96EDA6ADECFF6FFDDCFF7FF0800BE
:100BE800F550066E076A27C008F03BEC10F0E4EFFA
:100BF80005F01200F90E086E2E0E096E800E0A6EB0
:100C08001CEC12F0070E086E2E0E096EC00E0A6E4E
:100C18001CEC12F00A0E00018D6115EF06F017EFBB
:100C280006F0FCEF06F0850E076E2D0E086E84ECBC
:100C380012F0AA0E076E2D0E086E84EC12F0880EC4
:100C4800076E2D0E086E84EC12F058508FC047F0D6
:100C5800486A475E000E485A0A0E4724066E000E80
:100C68004820076E000E096E0A0E086E8CEC0FF015
:100C7800300E06240001E66F000E0720E76FC80E4D
:100C8800AF6F590EB06F2D0EB16FE6C0B2F0E7C06E
:100C9800B3F08F510A0DF3503FEC14F0476E4750F4
:100CA8000001B46FB56B8F510A0DF3283FEC14F0B7
:100CB800486E48500001B66FB76B8F510A0DF3505C
:100CC800020F3FEC14F0496E49500001B86FB96B40
:100CD8008F510A0DF350030F3FEC14F04A6E4A503F
:100CE8000001BA6FBB6B8F510A0DF350040F3FEC34
:100CF80014F04B6E4B500001BC6FBD6B8F510A0D49
:100D0800F350050F3FEC14F04C6E4C500001BE6FD1
:100D1800BF6B8F510A0DF350060F3FEC14F04D6E68
:100D28004D500001C06FC16B8F510A0DF350070F72
:100D38003FEC14F04E6E4E500001C26FC36B8F51E2
:100D48000A0DF350080F3FEC14F04F6E4F5000019E
:100D5800C46FC56B8F510A0DF350090F3FEC14F0A7
:100D6800506E50500001C66FC76BD1EC13F0C80E1F
:100D7800076E086A84EC12F0850E076E2D0E086E59
:100D880084EC12F0090E00018F19D8B4CEEF06F0EA
:100D9800D0EF06F0D8EF06F0010E8F25E86FE96B6B
:100DA800000EE923DCEF06F0000EE96F000EE86F95
:100DB800E8C08FF08F51476E486A8D51496E4A6A74
:100DC800010E4926000E4A224750491807E14850AB
:100DD8004A18D8A4F2EF06F0F4EF06F029EF06F06F
:100DE800850E076E2D0E086E84EC12F00EEF07F0DC
:100DF800850E076E2D0E086E84EC12F0E80E076E55
:100E08002E0E086E84EC12F0850E076E2D0E086EFD
:100E180084EC12F0D59E200E0001706F4E0E716F9B
:100E2800000E726F000E736F000ED76E060ED66E30
:100E3800D58E7051711172117311D8A426EF07F075
:100E480028EF07F01DEF07F0010E8C6F020E8B6F75
:100E58001200476E210E4718D8A435EF07F037EF78
:100E680007F03BEF07F0000E576E56EF08F0040E40
:100E78000001FD6142EF07F044EF07F01EEF08F0B4
:100E8800F40E086E2D0E096E800E0A6E1CEC12F020
:100E98005950D8B452EF07F054EF07F05FEF07F05E
:100EA800FD0E086E2F0E096E5750C00F0A6E1CEC0F
:100EB80012F068EF07F0160E086E2E0E096E5750E6
:100EC800C00F0A6E1CEC12F04750B3EC12F0040E7F
:100ED8005718D8A472EF07F074EF07F056EF08F030
:100EE800DCEC12F00009D8B47CEF07F07EEF07F0D5
:100EF800B7EF07F0B50E086E2E0E096E800E0A6E5B
:100F08001CEC12F0930E086E2E0E096EC00E0A6EBF
:100F18001CEC12F0D59E200E0001706F4E0E716F02
:100F2800000E726F000E736F000ED76E060ED66E2F
:100F3800D58E7051711172117311D8A4A6EF07F0F4
:100F4800A8EF07F09DEF07F0020E8B6FFB0E086EFF
:100F58002F0E096E800E0A6E1CEC12F0010E0001B5
:100F6800FD6F56EF08F0950E0001AF6FDD0EB06F04
:100F78002F0EB16FFD510308B26F000ED8A0E82AFA
:100F88000008B36FD1EC13F04E0E086E2F0E096EE9
:100F9800800E0A6E1CEC12F0950E086E096AC00EDF
:100FA8000A6E1CEC12F05E0E086E2F0E096EC10E52
:100FB8000A6E1CEC12F0D59E200E0001706F4E0ECA
:100FC800716F000E726F000E736F000ED76E060EF3
:100FD800D66ED58E7051711172117311D8A4F7EFB6
:100FE80007F0F9EF07F0EEEF07F0FD2B030EFD65B4
:100FF80000EF08F002EF08F00CEF08F0D59E000EA5
:10100800D76E060ED66ED58E000E846F780E836F5F
:10101800060E086E2E0E096EC00E0A6E1CEC12F03B
:10102800F40E086E2D0E096E800E0A6E1CEC12F07E
:1010380037EF07F0A40E086E2E0E096E800E0A6EAA
:101048001CEC12F0950E0001AF6FC60EB06F2E0E9D
:10105800B16F83C0B2F084C0B3F0D1EC13F0950E39
:10106800086E096AC00E0A6E1CEC12F0000183516A
:101078008411D8A442EF08F044EF08F056EF08F0C6
:10108800010EFD6F600E746FEA0E756F000E766FBD
:10109800000E776F080E086E2E0E096EC00E0A6ECF
:1010A8001CEC12F01200106E0B0E1018D8A45FEF93
:1010B80008F061EF08F084EF08F00001FE05D8A4FD
:1010C80068EF08F06AEF08F080EF08F05650D8B4DF
:1010D80070EF08F072EF08F07AEF08F0FF0E562470
:1010E8000C6E0D6AFF0E0D227EEF08F0000E0D6EDD
:1010F800000E0C6E0CC056F0010EFE6F2AEF09F0C0
:101108000C0E1018D8A48BEF08F08DEF08F0B2EF92
:1011180008F0020E0001FE19D8A495EF08F097EF29
:1011280008F0AEEF08F0030E5618D8B49EEF08F09A
:10113800A0EF08F0A8EF08F0010E56240E6E0F6A13
:10114800000E0F22ACEF08F0000E0F6E030E0E6EAD
:101158000EC056F0020EFE6F2AEF09F0150E101899
:10116800D8A4B9EF08F0BBEF08F010EF09F0D70EDC
:10117800086E2E0E096E800E0A6E1CEC12F0565088
:101188000001FE250B6E0B048A6F070E086E2E0EEB
:10119800096EC00E0A6E1CEC12F000018A51020D95
:1011A800F350F10FD96EDA6ADECF08F0DDCF09F01F
:1011B800C00E0A6E1CEC12F0030E00018B6F58C0B3
:1011C8008FF0D59E200E706F4E0E716F000E726FED
:1011D800000E736F000ED76E060ED66ED58E705148
:1011E800711172117311D8A4FCEF08F0FEEF08F02A
:1011F800F3EF08F0070E086E2E0E096E800E0A6EC9
:101208001CEC12F0070E086E2E0E096EC00E0A6E48
:101218001CEC12F07DEF09F0160E1018D8A417EF89
:1012280009F019EF09F02AEF09F000018C51D8A450
:1012380020EF09F022EF09F02AEF09F0000E8B6F7A
:10124800000E566E010EFE6F7DEF09F0160E101897
:10125800D8B431EF09F033EF09F036EF09F0000E9A
:1012680000018C6F0001FE05D8A43DEF09F03FEFA7
:1012780009F051EF09F0FB0E086E2F0E096E800E73
:101288000A6E1CEC12F0160E086E2E0E096EC00EB9
:101298000A6E1CEC12F061EF09F0160E086E2E0EA5
:1012A800096E800E0A6E1CEC12F0FB0E086E2F0EF3
:1012B800096EC00E0A6E1CEC12F05650020DF35067
:1012C800F10FD96EDA6ADECF08F0DDCF09F0810EB2
:1012D8000A6E1CEC12F05650020DF350F30FD96E43
:1012E800DA6ADECF08F0DDCF09F0C10E0A6E1CEC19
:1012F80012F01200226E160E2218D8A486EF09F0FA
:1013080088EF09F08FEF09F0020E00018B6F010ED4
:101318008C6F77EF0AF00A0E00018D6196EF09F0E5
:1013280098EF09F067EF0AF00B0E2218D8A49FEF88
:1013380009F0A1EF09F0C2EF09F058508F19D8B49D
:10134800A8EF09F0AAEF09F0EBEF09F08F51D8B434
:10135800B0EF09F0B2EF09F0BAEF09F0FF0E8F25F0
:101368001E6E1F6AFF0E1F22BEEF09F0000E1F6ED1
:10137800090E1E6E1EC08FF0EBEF09F00C0E22183E
:10138800D8A4C9EF09F0CBEF09F0EBEF09F08D51C4
:101398008F19D8B4D2EF09F0D4EF09F0EBEF09F0C8
:1013A800090E8F19D8B4DBEF09F0DDEF09F0E5EF8E
:1013B80009F0010E8F25206E216A000E2122E9EF27
:1013C80009F0000E216E000E206E20C08FF05850DC
:1013D8008F5D0C6E0A0E0C260C50066E076A000E06
:1013E800096E0A0E086E8CEC0FF00650300F0D6E69
:1013F80000018F510A0DF3503FEC14F00F6E0001FD
:101408008F510A0DF3283FEC14F0106E00018F5134
:101418000A0DF350020F3FEC14F0126E00018F51C9
:101428000A0DF350030F3FEC14F0136E00018F51B7
:101438000A0DF350040F3FEC14F0156E00018F51A4
:101448000A0DF350050F3FEC14F0166E00018F5192
:101458000A0DF350060F3FEC14F0186E00018F517F
:101468000A0DF350070F3FEC14F0196E00018F516D
:101478000A0DF350080F3FEC14F01B6E00018F515A
:101488000A0DF350090F3FEC14F01C6E200E0E6E7F
:101498003A0E116E3A0E146E200E176E200E1A6E4A
:1014A800000E1D6E820E086E2E0E096E800E0A6EDC
:1014B8001CEC12F00D0E086E096AC00E0A6E1CECC8
:1014C80012F077EF0AF0600E086E2E0E096E800E8D
:1014D8000A6E1CEC12F0710E086E2E0E096EC00E0C
:1014E8000A6E1CEC12F012000FC017F010C018F0B2
:1014F80017501810D8A483EF0AF085EF0AF089EF87
:101508000AF0D60E176E2F0E186E000E1A6E000E09
:10151800196E91EF0AF0194A1A2A19501724116EF8
:101528001A501820126E11C0F6FF12C0F7FFF86AA1
:10153800050EF76403D00800F55005D0F6CFE1FF9B
:10154800F7CFE2FFE7500009D8A4ADEF0AF0AFEFFC
:101558000AF08FEF0AF019C013F01AC014F07BC01C
:1015680015F07CC016F0000185B1BDEF0AF0BFEFA1
:101578000AF0F6EF0AF0CBEF0AF0000E076E200E25
:10158800066E0EC008F03BEC10F0194A1A2A1550E6
:10159800195C1A50800A116E1650800A1158D8A08A
:1015A800D8EF0AF0DAEF0AF0C1EF0AF0F6EF0AF026
:1015B80017C0F6FF18C0F7FFF86A050EF76403D0E6
:1015C8000800F55005D0F6CFE1FFF7CFE2FFE7506E
:1015D800116E1150066E076A0EC008F03BEC10F051
:1015E800174A182A1306D8A01406132806E1142847
:1015F800D8A401EF0BF003EF0BF0DCEF0AF00001C9
:1016080085A109EF0BF00BEF0BF026EF0BF017EFAE
:101618000BF0000E076E200E066E0EC008F03BECB5
:1016280010F0194A1A2A1550195C1A50800A116EBE
:101638001650800A1158D8A024EF0BF026EF0BF0B3
:101648000DEF0BF012000001D66F8EEF0BF0080EB5
:10165800946FA60ECD6F94C0CEF090C0CFF0F8EC8A
:101668000DF09EEF0BF0080E9419D8B43EEF0BF076
:1016780040EF0BF05BEF0BF0070E9419D8B447EF6F
:101688000BF049EF0BF051EF0BF0010E9425D96FD9
:10169800DA6B000EDA2355EF0BF0000EDA6F070E47
:1016A800D96FD9C0D7F0DAC0D8F05FEF0BF0000ED1
:1016B800D86F010ED76FD7C094F02DEF0BF0080E3E
:1016C8009419D8B46AEF0BF06CEF0BF086EF0BF0BF
:1016D800010E946572EF0BF074EF0BF07CEF0BF0DA
:1016E800FF0E9425DD6FDE6BFF0EDE2380EF0BF01F
:1016F800000EDE6F010EDD6FDDC0DBF0DEC0DCF05A
:101708008AEF0BF0000EDC6F010EDB6FDBC094F08C
:101718002DEF0BF00001D651010AD8B42BEF0BF0D6
:10172800030AD8B437EF0BF0010AD8B463EF0BF013
:101738009EEF0BF0950E0001AF6FCC0EB06F2F0E21
:10174800B16F9451020D200EF324D96E010EF420CE
:10175800DA6EDECFB2F0DDCFB3F090C0B4F0B56B87
:10176800D1EC13F00A0E086E2F0E096E800E0A6E69
:101778001CEC12F02FEC11F0A60E086E096AC00ED0
:101788000A6E1CEC12F0950E086E096AC80E0A6EF5
:101798001CEC12F01200010E216E1EBED6EF0BF0EB
:1017A800D9EF0BF0010EDAEF0BF0000E246E7BC0C0
:1017B80022F07CC023F02450D8B4E5EF0BF0E7EF1B
:1017C8000BF0FEEF0BF02206D8A023062450D8A475
:1017D800F0EF0BF0F2EF0BF0F8EF0BF0000E206ECD
:1017E8002B0E1F6EFCEF0BF0000E206E2D0E1F6EE1
:1017F8001FC024F0000E266E1F0E256E000E01017C
:101808001F6F36EF0CF02506D8A02606000E2524FB
:10181800D96E010E2620DA6E1DC006F01EC007F034
:10182800000E096E0A0E086E8CEC0FF006C00CF064
:1018380007C00DF00BEC14F00C50300FDF6E000EEB
:10184800216E2206D8A023061DC006F01EC007F090
:10185800000E096E0A0E086ECAEC0EF006C01DF0E6
:1018680007C01EF026BE41EF0CF0265008E1250403
:10187800D8A041EF0CF043EF0CF054EF0CF01D50E2
:101888001E10D8A44AEF0CF04CEF0CF007EF0CF048
:101898002150D8A452EF0CF054EF0CF007EF0CF0E5
:1018A8002450D8B45AEF0CF05CEF0CF067EF0CF052
:1018B8002506D8A02606000E2524D96E010E26205E
:1018C800DA6E24C0DFFF1CC014F0000E2524156E4C
:1018D800010E2620166E22C017F023C018F0E4EC83
:1018E80010F012000001CA51D96EDA6ADF50076E93
:1018F800C851B1EC13F00001CA51D96EDA6A010E71
:10190800D926DF50076EC829B1EC13F00001CA517F
:10191800D96EDA6A030ED926DF50076EC851020F56
:10192800B1EC13F00001CA51D96EDA6A040ED92657
:10193800DF50076EC851030FB1EC13F00001CA5114
:10194800D96EDA6A060ED926DF50076EC851040F21
:10195800B1EC13F00001CA51D96EDA6A070ED92624
:10196800DF50076EC851050FB1EC13F00001CB51E1
:10197800020D200EF324D96E010EF420DA6EDECFAC
:10198800F6FFDDCFF7FF0800F5CF07F0C851060FC7
:10199800B1EC13F00001CB51020D200EF324D96EE7
:1019A800010EF420DA6EDECF47F0DDCF48F0010EED
:1019B8004726000E482247C0F6FF48C0F7FF080038
:1019C800F5CF07F0C851070FB1EC13F0490E00012D
:1019D800AF6FDD0EB06F2F0EB16FCCC0B2F0B36B2E
:1019E800D1EC13F049C007F00001C851080FB1EC61
:1019F80013F04AC007F00001C851090FB1EC13F009
:101A08001200819A818C818E81B20DEF0DF00FEF5B
:101A18000DF012EF0DF0010E88EF0DF081B417EF05
:101A28000DF019EF0DF01CEF0DF0040E88EF0DF01E
:101A380081B621EF0DF023EF0DF026EF0DF0070E24
:101A480088EF0DF081B82BEF0DF02DEF0DF030EF92
:101A58000DF00A0E88EF0DF0818A819C818E81B28B
:101A680038EF0DF03AEF0DF03DEF0DF0020E88EF74
:101A78000DF081B442EF0DF044EF0DF047EF0DF09B
:101A8800050E88EF0DF081B64CEF0DF04EEF0DF01E
:101A980051EF0DF0080E88EF0DF081B856EF0DF0FC
:101AA80058EF0DF05BEF0DF00B0E88EF0DF0818A0B
:101AB800818C819E819E81B264EF0DF066EF0DF0FE
:101AC80069EF0DF0030E88EF0DF081B46EEF0DF0A5
:101AD80070EF0DF073EF0DF0060E88EF0DF081B684
:101AE80078EF0DF07AEF0DF07DEF0DF0090E88EF2D
:101AF8000DF081B882EF0DF084EF0DF087EF0DF057
:101B08000C0E88EF0DF0FF0E12000600F2A48FEF06
:101B18000DF091EF0DF0F6EF0DF0080ED624D66E0D
:101B2800000ED720D76E00017F4B802B7FC001F0BD
:101B380080C002F0270E046E100E036E52EC12F0F5
:101B480001500210D8A4ABEF0DF0ADEF0DF0B8EFD7
:101B58000DF05950D8B4B3EF0DF0B6EF0DF0010EFB
:101B6800B7EF0DF0000E596E000174517511761122
:101B78007711D8B4C2EF0DF0C4EF0DF0C9EF0DF036
:101B88007407000E755B765B775B7051711172118B
:101B98007311D8B4D2EF0DF0D4EF0DF0D9EF0DF0EA
:101BA8007007000E715B725B735B200E7F1907E193
:101BB8004E0E8019D8A4E3EF0DF0E5EF0DF0F5EF28
:101BC8000DF0000E806F000E7F6F83518411D8B422
:101BD800F0EF0DF0F2EF0DF0F5EF0DF08307D8A060
:101BE8008407F2945A92110000018E51D8A4FFEF95
:101BF8000DF001EF0EF02EEF0EF0000E586E8D2B4B
:101C08000A0E8D19D8A40BEF0EF00DEF0EF013EF9E
:101C18000EF0010E586E000E8D6F010E8E6F8DC086
:101C280006F0076A000E096E0A0E086E69EC14F0D9
:101C380006C0D4F007C0D5F0D4C0C8F0D5C0C9F0EC
:101C4800CDC0CAF0CEC0CBF0CFC0CCF076EC0CF053
:101C580062EF0EF08E05D8A434EF0EF036EF0EF0DA
:101C680062EF0EF0582A8D2B0A0E5818D8B43FEFA1
:101C78000EF041EF0EF046EF0EF058C0D0F0D16BE9
:101C88004AEF0EF0000ED16F000ED06FD0C058F0A2
:101C98000A0E8D19D8B453EF0EF055EF0EF05AEF27
:101CA8000EF08DC0D2F0D36B5EEF0EF0000ED36F46
:101CB800000ED26FD2C08DF013EF0EF01200086E36
:101CC8000850D8A46AEF0EF06CEF0EF0C8EF0EF0D3
:101CD80005EC0DF00001886F8829D8B476EF0EF076
:101CE80078EF0EF09CEF0EF088C087F08151066EF9
:101CF8008251076E814B822B210E065C030E07581A
:101D0800D8A089EF0EF08BEF0EF0C8EF0EF0FB5164
:101D1800FC11D8B492EF0EF094EF0EF0C8EF0EF06D
:101D2800000EFC6F000EFB6F88510A0FC9EF0EF012
:101D3800200E815D030E8259D8B0A5EF0EF0A7EFF3
:101D48000EF0BFEF0EF081518211D8B4AEEF0EF055
:101D5800B0EF0EF0BFEF0EF08829D8A4B6EF0EF062
:101D6800B8EF0EF0BFEF0EF0000E826F000E816F1D
:101D78008751C9EF0EF08769000E826F000E816FE0
:101D8800000EFC6F010EFB6FFF0E1200000E0B6EB3
:101D980009BED3EF0EF0D1EF0EF0D9EF0EF0086CBC
:101DA800091ED8B0092A010E0B6E07BEE0EF0EF02F
:101DB800DEEF0EF0E6EF0EF0066C071ED8B0072A2D
:101DC800010E0B1A000E0D6E000E0C6E0850091055
:101DD800D8B4F1EF0EF0F3EF0EF01BEF0FF0010E99
:101DE8000A6EFBEF0EF0D890083609360A2A09AEBB
:101DF80000EF0FF002EF0FF0F7EF0EF0D8900C366F
:101E08000D360850065C09500758D8A00EEF0FF0A1
:101E180010EF0FF015EF0FF00850065E0950075A43
:101E28000C80D890093208320A2E02EF0FF00B50BE
:101E3800D8B421EF0FF023EF0FF027EF0FF00C6C61
:101E48000D1ED8B00D2A0CC006F00DC007F0120008
:101E580000017B517C11D8A434EF0FF036EF0FF05E
:101E68003CEF0FF07BC013F07CC014F042EF0FF092
:101E7800FF0E7B25136EFF0E7C21146E85A147EFA4
:101E88000FF049EF0FF050EF0FF00FC006F0076AA0
:101E98000EC008F03BEC10F014BE55EF0FF057EFF2
:101EA8000FF059EF0FF05DEF0FF0000E146E000EFB
:101EB800136E000E126E000E116E6DEF0FF0000E15
:101EC800076E200E066E0EC008F03BEC10F0114AAB
:101ED800122A1350115C1250800A106E1450800A96
:101EE8001058D8A07AEF0FF07CEF0FF063EF0FF0E7
:101EF800000185B182EF0FF084EF0FF08BEF0FF048
:101F08000FC006F0076A0EC008F03BEC10F0120094
:101F1800000E0B6E07BE95EF0FF093EF0FF09BEFDF
:101F28000FF0066C071ED8B0072A010E0B6E09BE0B
:101F3800A2EF0FF0A0EF0FF0A6EF0FF0086C091E4C
:101F4800D8B0092A08500910D8B4ADEF0FF0AFEF98
:101F58000FF0D3EF0FF0010E0A6EB7EF0FF0D89025
:101F6800083609360A2A09AEBCEF0FF0BEEF0FF0AB
:101F7800B3EF0FF00850065C09500758D8A0C7EF18
:101F88000FF0C9EF0FF0CDEF0FF00850065E0950C3
:101F9800075AD890093208320A2EBEEF0FF00B50BC
:101FA800D8B4D9EF0FF0DBEF0FF0DFEF0FF0066CCE
:101FB800071ED8B0072A06C006F007C007F01200AF
:101FC800000E106E000E0F6E0C50D96EDA6ADECF5E
:101FD800F6FFDDCFF7FF0800F5502A0AD8A4F7EF7F
:101FE8000FF0F9EF0FF023EF10F00C50D96EDA6A0A
:101FF800DE2A000EDD220D50D96EDA6A020EDF26C7
:10200800DF5CD96EDA6ADECF0FF0DECF10F036EF84
:1020180010F00FC006F010C007F0000E096E0A0E8F
:10202800086E69EC14F00E5006240F6E000E07209F
:10203800106E0C50D96EDA6ADE2A000EDD220C50C2
:10204800D96EDA6ADECFF6FFDDCFF7FF0800F5506C
:10205800D00F0E6E090E0E6434EF10F036EF10F04C
:102068000DEF10F00FC00CF010C00DF0120008506A
:10207800D8B441EF10F043EF10F04BEF10F00850D8
:10208800D8A449EF10F04BEF10F050EF10F00650C5
:102098001FEC15F08FEF10F00850D96EDA6A0A0EAF
:1020A800D926DE50DE10D8B45CEF10F05EEF10F0E9
:1020B80077EF10F00850D96EDA6A0A0ED926085060
:1020C800E16EE26A030EE126DE50E65CE650800A25
:1020D8000D6EDE50800A0D58D8B075EF10F077EF0E
:1020E80010F08FEF10F00850D96EDA6A030ED92677
:1020F800DF50096E0850D96EDA6ADF500924D96EAC
:10210800DA6A06C0DFFF0850D96EDA6A030ED926EC
:10211800DE2A000EDD221200000E956E9450F80B98
:10212800946E8290C30E086ECD0EE82EFED7082E50
:10213800FCD70000000E066E330EEEEC13F01B0EFB
:10214800086E9E0EE82EFED7082EFCD700D0000E93
:10215800066E330EEEEC13F0A60EE82EFED700D076
:10216800000E066E330EEEEC13F000D000D0000027
:10217800000E066E020EEEEC13F0A60EE82EFED749
:1021880000D0000E066E380EEEEC13F0A60EE82E08
:10219800FED700D0000E066E010EEEEC13F0040E12
:1021A800086E3E0EE82EFED7082EFCD7000E066EEF
:1021B8000C0EEEEC13F0A60EE82EFED700D012009F
:1021C800000185A1EAEF10F0ECEF10F0F4EF10F049
:1021D80015C00EF016C00FF014C010F091EC13F0FB
:1021E80018BEFBEF10F0F9EF10F0FFEF10F0000E43
:1021F800186E000E176E000E1B6E000E1A6E0FEF93
:1022080011F0000E076E200E066E14C008F03BECAD
:1022180010F01A4A1B2A17501A5C1B50800A196EB4
:102228001850800A1958D8A01CEF11F01EEF11F0B1
:1022380005EF11F0000185B124EF11F026EF11F040
:102248002EEF11F015C00EF016C00FF014C010F0EC
:1022580091EC13F01200020E54EC14F00001786FA8
:10226800010E54EC14F00001796F000E54EC14F0D8
:1022780000017A6F78AD43EF11F045EF11F050EFA0
:1022880011F078390F0B010B300FA66F78510F0B37
:10229800300FA76F59EF11F078390F0B030B300F80
:1022A800A66F78510F0B300FA76F3A0EA86F7939C8
:1022B8000F0B0F0B300FA96F79510F0B300FAA6F4F
:1022C8003A0EAB6F7A390F0B0F0B300FAC6F7A5198
:1022D8000F0B300FAD6F000EAE6F1200000E0B6EBD
:1022E800000E0A6E08500910D8B47DEF11F07FEF88
:1022F80011F0A7EF11F0010E0C6E87EF11F0D890D6
:10230800083609360C2A09AE8CEF11F08EEF11F061
:1023180083EF11F0D8900A360B360850065C095046
:102328000758D8A09AEF11F09CEF11F0A1EF11F027
:102338000850065E0950075A0A80D89009320832B8
:102348000C2E8EEF11F00AC006F00BC007F0120039
:10235800BC0EF66E290EF76E000EF86E01EE20F038
:1023680010EE12F00900F5CFEEFFE550E150FAE16A
:10237800F20EF66E290EF76E000EF86E00EEF1F012
:1023880010EE0EF00900F5CFEEFFE550E150FAE14E
:1023980001EE00F0200EEE6AE806FDE100EE60F0C6
:1023A8004F0EEE6AE806FDE100EE51F0090EEE6A06
:1023B800E806FDE15A905A92000EF86E000170EF9F
:1023C80003F0000E586E00018D6958C08FF0000EA2
:1023D8008E6FE00E086E2D0E096E800E0A6E1CECD4
:1023E80012F0CC0E086E2D0E096EC00E0A6E1CEC93
:1023F80012F0D59E200E0001706F4E0E716F000E08
:10240800726F000E736F000ED76E060ED66ED58EE5
:102418007051711172117311D8A415EF12F017EFE2
:1024280012F00CEF12F0020E8B6F010E8C6F12007F
:10243800000E066E0A50EEEC13F039EF12F0010EA2
:10244800066E08C0F6FF09C0F7FFF86A050EF764C4
:1024580003D00800F55005D0F6CFE1FFF7CFE2FF33
:10246800E750EEEC13F0084A092A08C0F6FF09C045
:10247800F7FFF86A050EF76403D00800F55005D099
:10248800F6CFE1FFF7CFE2FFE7500009D8A44FEFFE
:1024980012F051EF12F023EF12F012000350041063
:1024A800D8B459EF12F05BEF12F07FEF12F0010E83
:1024B800056E63EF12F0D89003360436052A04AE91
:1024C80068EF12F06AEF12F05FEF12F00350015C50
:1024D80004500258D8A073EF12F075EF12F079EF9C
:1024E80012F00350015E0450025AD89004320332AD
:1024F800052E6AEF12F001C001F002C002F01200CE
:102508009AEF12F007C0F6FF08C0F7FFF86A050E49
:10251800F76403D00800F55005D0F6CFE1FFF7CFF8
:10252800E2FFE750BCEC14F0074A082A07C0F6FFA0
:1025380008C0F7FFF86A050EF76403D00800F550E5
:1025480005D0F6CFE1FFF7CFE2FFE7500009D8A4A6
:10255800B0EF12F0B2EF12F086EF12F012000B6E2D
:102568000B28D8B4BAEF12F0BCEF12F0DBEF12F080
:10257800D59E600E0001746FEA0E756F000E766FBF
:10258800000E776F000ED76E060ED66ED58E57509A
:10259800640FD96EDA6A0BC0DFFFFB0E086E2F0ED0
:1025A800096E5750C00F0A6E1CEC12F0572A120021
:1025B800000E576E030E5764E4EF12F0E6EF12F0C8
:1025C800E8EF12F0FFEF12F05750680FD96EDA6A91
:1025D8005750640FE16EE26ADE50E618D8B4F7EFA0
:1025E80012F0F9EF12F0FCEF12F0000E02EF13F008
:1025F800572ADEEF12F0000E576E010E1200000E81
:10260800576E030E57640BEF13F00DEF13F00FEF37
:1026180013F026EF13F05750600FD96EDA6A57504F
:10262800640FE16EE26ADE50E618D8B41EEF13F0CC
:1026380020EF13F023EF13F0000E29EF13F0572AC1
:1026480005EF13F0000E576E010E12000C6E0CC051
:1026580008F0D8900836D8900836C250C30B081036
:10266800C26EC282C2B23BEF13F03DEF13F036EFF9
:1026780013F0C350C4CF08F0096A08C009F0086A0B
:1026880008100A6E09500B6E0AC006F00BC007F05E
:102698001200000E54EC14F0096E09508009076E00
:1026A800000EADEC14F0020E54EC14F0096E09C0E3
:1026B80007F0020EADEC14F0930E076E070EADECAA
:1026C80014F0000E54EC14F0096E09507F0B076EDD
:1026D800000EADEC14F0120035C038F036C039F0F9
:1026E8007EEF13F034C027F0380E286E37C029F07B
:1026F800BBEC04F038C0F6FF39C0F7FF0800F5500E
:102708000009D8A48AEF13F08CEF13F076EF13F0DA
:10271800000E356E000E346E1200000E136E000EA1
:10272800126EA0EF13F011C006F0076A10C008F08F
:102738003BEC10F0124A132A12500E24D96E135093
:102748000F20DA6EDF50116E1150D8A4AEEF13F0DF
:10275800B0EF13F097EF13F01200086E18EC15F0B5
:10276800A00E06EC15F0085006EC15F0075006EC24
:1027780015F014EC15F00B0E0A6EB80E096E09066A
:10278800D8A00A06092806E10A28D8A4CEEF13F033
:10279800D0EF13F0C3EF13F01200B20E3A6EAFC0D1
:1027A8003BF0000E3F6E000E3E6E000E466E000EB1
:1027B800456E3B0E346EB0C035F0B1C036F03A0EFF
:1027C800376E70EC13F00001AF513E24D96EDA6A0F
:1027D800DF6A1200076E06B0F4EF13F0F7EF13F09C
:1027E8008282F8EF13F0829207C083FF828482947A
:1027F800958E828082928284829483BE06EF14F042
:1028080008EF14F0FFEF13F08290959E12000DBEB2
:1028180010EF14F012EF14F018EF14F00CC00CF0D5
:102828000DC00DF024EF14F00CC00EF00DC00FF029
:102838000E1E0F1E0E4A0F2A0EC00CF00FC00DF010
:1028480012000B6E0B28D8B42CEF14F02EEF14F0F6
:102858003EEF14F05750600FD96EDA6A0BC0DFFFF5
:10286800FB0E086E2F0E096E5750C00F0A6E1CEC37
:1028780012F0572A1200076E18EC15F0A00E06EC9D
:1028880015F0075006EC15F00CEC15F0A10E06EC4F
:1028980015F000EC15F0086E14EC15F00850120055
:1028A800076E18EC15F0D00E06EC15F0075006EC84
:1028B80015F00CEC15F0D10E06EC15F000EC15F047
:1028C800086E14EC15F00850120006500802F3CFF9
:1028D8000AF0F4CF0BF006500902F3500B2607500C
:1028E8000802F3500B260AC006F00BC007F01200CE
:1028F8009DEC14F090EC10F0E7EC14F0D3EC14F02D
:102908004DEC13F08DEC14F0F28CC8EC14F0F28E50
:102918001200948E949CAC9CAC8AAC98AC96AC8417
:10292800AB8EAB9CAB88B896810EAF6E9E989E9A84
:102938001200C08EC09AC088C096C090C082C09451
:10294800C292C19AC198000EC46E000EC36EC280B6
:102958001200086E18EC15F0D00E06EC15F00850B1
:1029680006EC15F0075006EC15F014EC15F0120003
:10297800066E9EA8C2EF14F0C4EF14F0BDEF14F079
:102988009E9806C0ADFF1200D58CD59AD58ED586F7
:10299800000ED76E060ED66EF294F28A1200948656
:1029A8009488280EC66E310EC86EC79CC78E9E9638
:1029B800A1961200F52FF22FF82FE32FE62FE92F1B
:1029C800EC2FEF2FE02F0F0EC16E1E0E936EF19EAF
:1029D8008150E009816E12009EA6F5EF14F0F7EF22
:1029E80014F0F0EF14F09E9612007E2F8E2F9E2F7B
:1029F8006E2FAE2F0100010110EC15F01CEC15F044
:102A0800C9501200066E06C0C9FFF0EC14F012009F
:102A1800C582F0EC14F01200C586F0EC14F0120038
:102A2800C584F0EC14F01200C580F0EC14F012002C
:082A3800C58AC58812001200D6
:102D580000202020202563202020256325633A2594
:102D68006325633A256325632020202020256325D9
:102D7800632020202020202563256320200A0D00C1
:102D88002D2D2D2D2D2020202D2D2D2D20202020C6
:102D98002020202D2D2D2D2020202D2D2D2D2D0ACC
:102DA8000D00534C204E4F202020444154452020F4
:102DB80020202020204745415220202053504545BF
:102DC800440A0D0020202D2D2D2D2D2D2D2D2D2D9E
:102DD8002D2020202020200020204C4F4720434C2D
:102DE800454152454420202020202000456E74652E
:102DF800722050617373776F7264203A200020202C
:102E080020202020202020202020202020202000DA
:102E1800535543434553532E2E2020202020202055
:102E28002000505357442053415645442E2020201B
:102E380020202000454E544552204E4557205053DF
:102E48005744202020005245454E544552204E45B7
:102E58005720505357442000202056494557204CAE
:102E68004F47203A2020202000203C20454D505438
:102E780059204C4F47203E202000232054494D45DF
:102E880020202047454152205350002020202D2D3E
:102E98002D2D2D2D2D2D2D20202020005553455230
:102EA80020424C4F434B4544202020200020202026
:102EB8004D41494E204D454E552020202000466F5B
:102EC8007220253364207365636F6E647320004D30
:102ED800454E5520454E5445522E2E202020200088
:102EE8004C4F47532041524520454D5054590A0DE7
:102EF8000020444F574E4C4F4144494E472E2E20F8
:102F0800200054494D45202020202047454152208B
:102F18005350004641494C4544212120202020207F
:102F2800202020004E4F54204D41544348494E47DD
:102F38002E2E202000454E544552204F4C44205000
:102F480053574420200057726F6E67205061737387
:102F5800776F7264200020617474656D70747320DB
:102F68006C65667420005365742054696D65202073
:102F780020202020200056696577204C6F6720208C
:102F8800202020202000436C656172204C6F672050
:102F9800202020202000446F776E6C6F6164204CE5
:102FA8006F67202020004368616E67652050617359
:102FB80073776F7264005345542054494D4520205F
:102FC8002020200020202573202025326400286E30
:102FD800756C6C2900256400432000473100473296
:102FE80000473300473400473500474E004F4E0036
:082FF8004752002A005F0000AF
:020000040020DA
:08000000FFFFFFFFFFFFFFFF00
:020000040030CA
:0E000000FF071F1FFF8285FF0FC00FE00F409C
:00000001FF
